{
  "abi": [
    {
      "type": "constructor",
      "inputs": [
        {
          "name": "_tokenAddress",
          "type": "address",
          "internalType": "address"
        },
        {
          "name": "_dripInterval",
          "type": "uint256",
          "internalType": "uint256"
        },
        {
          "name": "_dripLimit",
          "type": "uint256",
          "internalType": "uint256"
        },
        {
          "name": "_owner",
          "type": "address",
          "internalType": "address"
        }
      ],
      "stateMutability": "nonpayable"
    },
    {
      "type": "function",
      "name": "deposit",
      "inputs": [
        {
          "name": "_amount",
          "type": "uint256",
          "internalType": "uint256"
        }
      ],
      "outputs": [],
      "stateMutability": "nonpayable"
    },
    {
      "type": "function",
      "name": "drip",
      "inputs": [
        {
          "name": "_amount",
          "type": "uint256",
          "internalType": "uint256"
        }
      ],
      "outputs": [],
      "stateMutability": "nonpayable"
    },
    {
      "type": "function",
      "name": "dripInterval",
      "inputs": [],
      "outputs": [
        {
          "name": "",
          "type": "uint256",
          "internalType": "uint256"
        }
      ],
      "stateMutability": "view"
    },
    {
      "type": "function",
      "name": "dripLimit",
      "inputs": [],
      "outputs": [
        {
          "name": "",
          "type": "uint256",
          "internalType": "uint256"
        }
      ],
      "stateMutability": "view"
    },
    {
      "type": "function",
      "name": "getDripInterval",
      "inputs": [],
      "outputs": [
        {
          "name": "",
          "type": "uint256",
          "internalType": "uint256"
        }
      ],
      "stateMutability": "view"
    },
    {
      "type": "function",
      "name": "getDripLimit",
      "inputs": [],
      "outputs": [
        {
          "name": "",
          "type": "uint256",
          "internalType": "uint256"
        }
      ],
      "stateMutability": "view"
    },
    {
      "type": "function",
      "name": "getDripTime",
      "inputs": [
        {
          "name": "_user",
          "type": "address",
          "internalType": "address"
        }
      ],
      "outputs": [
        {
          "name": "",
          "type": "uint256",
          "internalType": "uint256"
        }
      ],
      "stateMutability": "view"
    },
    {
      "type": "function",
      "name": "owner",
      "inputs": [],
      "outputs": [
        {
          "name": "",
          "type": "address",
          "internalType": "address"
        }
      ],
      "stateMutability": "view"
    },
    {
      "type": "function",
      "name": "renounceOwnership",
      "inputs": [],
      "outputs": [],
      "stateMutability": "nonpayable"
    },
    {
      "type": "function",
      "name": "setDripInterval",
      "inputs": [
        {
          "name": "_newDripInterval",
          "type": "uint256",
          "internalType": "uint256"
        }
      ],
      "outputs": [],
      "stateMutability": "nonpayable"
    },
    {
      "type": "function",
      "name": "setDripLimit",
      "inputs": [
        {
          "name": "_newDripLimit",
          "type": "uint256",
          "internalType": "uint256"
        }
      ],
      "outputs": [],
      "stateMutability": "nonpayable"
    },
    {
      "type": "function",
      "name": "setTokenAddress",
      "inputs": [
        {
          "name": "_newTokenAddress",
          "type": "address",
          "internalType": "address"
        }
      ],
      "outputs": [],
      "stateMutability": "nonpayable"
    },
    {
      "type": "function",
      "name": "token",
      "inputs": [],
      "outputs": [
        {
          "name": "",
          "type": "address",
          "internalType": "contract IERC20"
        }
      ],
      "stateMutability": "view"
    },
    {
      "type": "function",
      "name": "tokenAddress",
      "inputs": [],
      "outputs": [
        {
          "name": "",
          "type": "address",
          "internalType": "address"
        }
      ],
      "stateMutability": "view"
    },
    {
      "type": "function",
      "name": "transferOwnership",
      "inputs": [
        {
          "name": "newOwner",
          "type": "address",
          "internalType": "address"
        }
      ],
      "outputs": [],
      "stateMutability": "nonpayable"
    },
    {
      "type": "event",
      "name": "LLCFaucet__Drip",
      "inputs": [
        {
          "name": "Receiver",
          "type": "address",
          "indexed": true,
          "internalType": "address"
        },
        {
          "name": "Amount",
          "type": "uint256",
          "indexed": true,
          "internalType": "uint256"
        }
      ],
      "anonymous": false
    },
    {
      "type": "event",
      "name": "LLCFaucet__OwnerDeposit",
      "inputs": [
        {
          "name": "amount",
          "type": "uint256",
          "indexed": true,
          "internalType": "uint256"
        }
      ],
      "anonymous": false
    },
    {
      "type": "event",
      "name": "OwnershipTransferred",
      "inputs": [
        {
          "name": "previousOwner",
          "type": "address",
          "indexed": true,
          "internalType": "address"
        },
        {
          "name": "newOwner",
          "type": "address",
          "indexed": true,
          "internalType": "address"
        }
      ],
      "anonymous": false
    },
    {
      "type": "error",
      "name": "LLCFaucet__ExceedLimit",
      "inputs": []
    },
    {
      "type": "error",
      "name": "LLCFaucet__FaucetEmpty",
      "inputs": []
    },
    {
      "type": "error",
      "name": "LLCFaucet__IntervalHasNotPassed",
      "inputs": []
    },
    {
      "type": "error",
      "name": "LLCFaucet__InvalidAmount",
      "inputs": []
    },
    {
      "type": "error",
      "name": "OwnableInvalidOwner",
      "inputs": [
        {
          "name": "owner",
          "type": "address",
          "internalType": "address"
        }
      ]
    },
    {
      "type": "error",
      "name": "OwnableUnauthorizedAccount",
      "inputs": [
        {
          "name": "account",
          "type": "address",
          "internalType": "address"
        }
      ]
    },
    {
      "type": "error",
      "name": "SafeERC20FailedOperation",
      "inputs": [
        {
          "name": "token",
          "type": "address",
          "internalType": "address"
        }
      ]
    }
  ],
  "bytecode": {
    "object": "0x608060405234801561000f575f5ffd5b5060405161086e38038061086e83398101604081905261002e91610109565b806001600160a01b03811661005c57604051631e4fbdf760e01b81525f600482015260240160405180910390fd5b6100658161009f565b5050600280546001600160a01b039094166001600160a01b031994851681179091556003929092556004556001805490921617905561014d565b5f80546001600160a01b038381166001600160a01b0319831681178455604051919092169283917f8be0079c531659141344cd1fd0a4f28419497f9722a3daafe3b4186f6b6457e09190a35050565b80516001600160a01b0381168114610104575f5ffd5b919050565b5f5f5f5f6080858703121561011c575f5ffd5b610125856100ee565b6020860151604087015191955093509150610142606086016100ee565b905092959194509250565b6107148061015a5f395ff3fe608060405234801561000f575f5ffd5b50600436106100f0575f3560e01c8063715018a611610093578063b1c6d07b11610063578063b1c6d07b146101b2578063b6b55f25146101da578063f2fde38b146101ed578063fc0c546a14610200575f5ffd5b8063715018a6146101605780638da5cb5b146101685780639d76ea581461018c578063a9a89db91461019f575f5ffd5b80634bd74aa6116100ce5780634bd74aa6146101285780634d4c7d111461013b57806358326b7a146101445780636a21481114610157575f5ffd5b8063079da0b3146100f457806308b930aa1461010b57806326a4e8d214610113575b5f5ffd5b6004545b6040519081526020015b60405180910390f35b6003546100f8565b61012661012136600461065e565b610213565b005b61012661013636600461068b565b61023d565b6100f860045481565b61012661015236600461068b565b61024a565b6100f860035481565b61012661038d565b5f546001600160a01b03165b6040516001600160a01b039091168152602001610102565b600254610174906001600160a01b031681565b6101266101ad36600461068b565b6103a0565b6100f86101c036600461065e565b6001600160a01b03165f9081526005602052604090205490565b6101266101e836600461068b565b6103ad565b6101266101fb36600461065e565b610492565b600154610174906001600160a01b031681565b61021b6104d4565b600280546001600160a01b0319166001600160a01b0392909216919091179055565b6102456104d4565b600455565b600354335f908152600560205260409020548291610267916106a2565b4210156102875760405163e28e4f7b60e01b815260040160405180910390fd5b6004548111156102aa57604051630a27a5db60e41b815260040160405180910390fd5b6001546040516370a0823160e01b815230600482015282916001600160a01b0316906370a0823190602401602060405180830381865afa1580156102f0573d5f5f3e3d5ffd5b505050506040513d601f19601f8201168201806040525081019061031491906106c7565b101561033357604051634002f57360e11b815260040160405180910390fd5b335f81815260056020526040902042905560015461035d916001600160a01b039091169083610500565b604051819033907fafaf7a83a0f83675273952773400db39a694d5bb7efaf9ef12a31d4ca3730692905f90a35050565b6103956104d4565b61039e5f610564565b565b6103a86104d4565b600355565b6103b56104d4565b6001546001600160a01b03166370a08231336040516001600160e01b031960e084901b1681526001600160a01b039091166004820152602401602060405180830381865afa158015610409573d5f5f3e3d5ffd5b505050506040513d601f19601f8201168201806040525081019061042d91906106c7565b81111561044d5760405163351f66c760e11b815260040160405180910390fd5b610465336001546001600160a01b03169030846105b3565b60405181907fc3ac03ae21a261154f55c7642997a2e3bc49858ef245ca846a0a09ba76dcae40905f90a250565b61049a6104d4565b6001600160a01b0381166104c857604051631e4fbdf760e01b81525f60048201526024015b60405180910390fd5b6104d181610564565b50565b5f546001600160a01b0316331461039e5760405163118cdaa760e01b81523360048201526024016104bf565b6040516001600160a01b0383811660248301526044820183905261055f91859182169063a9059cbb906064015b604051602081830303815290604052915060e01b6020820180516001600160e01b0383818316178352505050506105f2565b505050565b5f80546001600160a01b038381166001600160a01b0319831681178455604051919092169283917f8be0079c531659141344cd1fd0a4f28419497f9722a3daafe3b4186f6b6457e09190a35050565b6040516001600160a01b0384811660248301528381166044830152606482018390526105ec9186918216906323b872dd9060840161052d565b50505050565b5f5f60205f8451602086015f885af180610611576040513d5f823e3d81fd5b50505f513d91508115610628578060011415610635565b6001600160a01b0384163b155b156105ec57604051635274afe760e01b81526001600160a01b03851660048201526024016104bf565b5f6020828403121561066e575f5ffd5b81356001600160a01b0381168114610684575f5ffd5b9392505050565b5f6020828403121561069b575f5ffd5b5035919050565b808201808211156106c157634e487b7160e01b5f52601160045260245ffd5b92915050565b5f602082840312156106d7575f5ffd5b505191905056fea2646970667358221220bbb1350b35349ad4592f397858280fc5f2803463dbd732677d92707b369eba3f64736f6c634300081c0033",
    "linkReferences": {}
  },
  "methodIdentifiers": {
    "deposit(uint256)": "b6b55f25",
    "drip(uint256)": "58326b7a",
    "dripInterval()": "6a214811",
    "dripLimit()": "4d4c7d11",
    "getDripInterval()": "08b930aa",
    "getDripLimit()": "079da0b3",
    "getDripTime(address)": "b1c6d07b",
    "owner()": "8da5cb5b",
    "renounceOwnership()": "715018a6",
    "setDripInterval(uint256)": "a9a89db9",
    "setDripLimit(uint256)": "4bd74aa6",
    "setTokenAddress(address)": "26a4e8d2",
    "token()": "fc0c546a",
    "tokenAddress()": "9d76ea58",
    "transferOwnership(address)": "f2fde38b"
  },
  "id": 34
}