{
  "abi": [
    {
      "type": "constructor",
      "inputs": [
        {
          "name": "initialOwner",
          "type": "address",
          "internalType": "address"
        }
      ],
      "stateMutability": "nonpayable"
    },
    {
      "type": "function",
      "name": "_name",
      "inputs": [],
      "outputs": [
        {
          "name": "",
          "type": "string",
          "internalType": "string"
        }
      ],
      "stateMutability": "view"
    },
    {
      "type": "function",
      "name": "_symbol",
      "inputs": [],
      "outputs": [
        {
          "name": "",
          "type": "string",
          "internalType": "string"
        }
      ],
      "stateMutability": "view"
    },
    {
      "type": "function",
      "name": "allowance",
      "inputs": [
        {
          "name": "owner",
          "type": "address",
          "internalType": "address"
        },
        {
          "name": "spender",
          "type": "address",
          "internalType": "address"
        }
      ],
      "outputs": [
        {
          "name": "",
          "type": "uint256",
          "internalType": "uint256"
        }
      ],
      "stateMutability": "view"
    },
    {
      "type": "function",
      "name": "approve",
      "inputs": [
        {
          "name": "spender",
          "type": "address",
          "internalType": "address"
        },
        {
          "name": "value",
          "type": "uint256",
          "internalType": "uint256"
        }
      ],
      "outputs": [
        {
          "name": "",
          "type": "bool",
          "internalType": "bool"
        }
      ],
      "stateMutability": "nonpayable"
    },
    {
      "type": "function",
      "name": "balanceOf",
      "inputs": [
        {
          "name": "account",
          "type": "address",
          "internalType": "address"
        }
      ],
      "outputs": [
        {
          "name": "",
          "type": "uint256",
          "internalType": "uint256"
        }
      ],
      "stateMutability": "view"
    },
    {
      "type": "function",
      "name": "burn",
      "inputs": [
        {
          "name": "_amount",
          "type": "uint256",
          "internalType": "uint256"
        }
      ],
      "outputs": [],
      "stateMutability": "nonpayable"
    },
    {
      "type": "function",
      "name": "decimals",
      "inputs": [],
      "outputs": [
        {
          "name": "",
          "type": "uint8",
          "internalType": "uint8"
        }
      ],
      "stateMutability": "view"
    },
    {
      "type": "function",
      "name": "mint",
      "inputs": [
        {
          "name": "_amount",
          "type": "uint256",
          "internalType": "uint256"
        }
      ],
      "outputs": [],
      "stateMutability": "nonpayable"
    },
    {
      "type": "function",
      "name": "name",
      "inputs": [],
      "outputs": [
        {
          "name": "",
          "type": "string",
          "internalType": "string"
        }
      ],
      "stateMutability": "view"
    },
    {
      "type": "function",
      "name": "owner",
      "inputs": [],
      "outputs": [
        {
          "name": "",
          "type": "address",
          "internalType": "address"
        }
      ],
      "stateMutability": "view"
    },
    {
      "type": "function",
      "name": "renounceOwnership",
      "inputs": [],
      "outputs": [],
      "stateMutability": "nonpayable"
    },
    {
      "type": "function",
      "name": "symbol",
      "inputs": [],
      "outputs": [
        {
          "name": "",
          "type": "string",
          "internalType": "string"
        }
      ],
      "stateMutability": "view"
    },
    {
      "type": "function",
      "name": "totalSupply",
      "inputs": [],
      "outputs": [
        {
          "name": "",
          "type": "uint256",
          "internalType": "uint256"
        }
      ],
      "stateMutability": "view"
    },
    {
      "type": "function",
      "name": "transfer",
      "inputs": [
        {
          "name": "to",
          "type": "address",
          "internalType": "address"
        },
        {
          "name": "value",
          "type": "uint256",
          "internalType": "uint256"
        }
      ],
      "outputs": [
        {
          "name": "",
          "type": "bool",
          "internalType": "bool"
        }
      ],
      "stateMutability": "nonpayable"
    },
    {
      "type": "function",
      "name": "transferFrom",
      "inputs": [
        {
          "name": "from",
          "type": "address",
          "internalType": "address"
        },
        {
          "name": "to",
          "type": "address",
          "internalType": "address"
        },
        {
          "name": "value",
          "type": "uint256",
          "internalType": "uint256"
        }
      ],
      "outputs": [
        {
          "name": "",
          "type": "bool",
          "internalType": "bool"
        }
      ],
      "stateMutability": "nonpayable"
    },
    {
      "type": "function",
      "name": "transferOwnership",
      "inputs": [
        {
          "name": "newOwner",
          "type": "address",
          "internalType": "address"
        }
      ],
      "outputs": [],
      "stateMutability": "nonpayable"
    },
    {
      "type": "event",
      "name": "Approval",
      "inputs": [
        {
          "name": "owner",
          "type": "address",
          "indexed": true,
          "internalType": "address"
        },
        {
          "name": "spender",
          "type": "address",
          "indexed": true,
          "internalType": "address"
        },
        {
          "name": "value",
          "type": "uint256",
          "indexed": false,
          "internalType": "uint256"
        }
      ],
      "anonymous": false
    },
    {
      "type": "event",
      "name": "Burn",
      "inputs": [
        {
          "name": "amount",
          "type": "uint256",
          "indexed": true,
          "internalType": "uint256"
        }
      ],
      "anonymous": false
    },
    {
      "type": "event",
      "name": "Mint",
      "inputs": [
        {
          "name": "amount",
          "type": "uint256",
          "indexed": true,
          "internalType": "uint256"
        }
      ],
      "anonymous": false
    },
    {
      "type": "event",
      "name": "OwnershipTransferred",
      "inputs": [
        {
          "name": "previousOwner",
          "type": "address",
          "indexed": true,
          "internalType": "address"
        },
        {
          "name": "newOwner",
          "type": "address",
          "indexed": true,
          "internalType": "address"
        }
      ],
      "anonymous": false
    },
    {
      "type": "event",
      "name": "Transfer",
      "inputs": [
        {
          "name": "from",
          "type": "address",
          "indexed": true,
          "internalType": "address"
        },
        {
          "name": "to",
          "type": "address",
          "indexed": true,
          "internalType": "address"
        },
        {
          "name": "value",
          "type": "uint256",
          "indexed": false,
          "internalType": "uint256"
        }
      ],
      "anonymous": false
    },
    {
      "type": "error",
      "name": "ERC20InsufficientAllowance",
      "inputs": [
        {
          "name": "spender",
          "type": "address",
          "internalType": "address"
        },
        {
          "name": "allowance",
          "type": "uint256",
          "internalType": "uint256"
        },
        {
          "name": "needed",
          "type": "uint256",
          "internalType": "uint256"
        }
      ]
    },
    {
      "type": "error",
      "name": "ERC20InsufficientBalance",
      "inputs": [
        {
          "name": "sender",
          "type": "address",
          "internalType": "address"
        },
        {
          "name": "balance",
          "type": "uint256",
          "internalType": "uint256"
        },
        {
          "name": "needed",
          "type": "uint256",
          "internalType": "uint256"
        }
      ]
    },
    {
      "type": "error",
      "name": "ERC20InvalidApprover",
      "inputs": [
        {
          "name": "approver",
          "type": "address",
          "internalType": "address"
        }
      ]
    },
    {
      "type": "error",
      "name": "ERC20InvalidReceiver",
      "inputs": [
        {
          "name": "receiver",
          "type": "address",
          "internalType": "address"
        }
      ]
    },
    {
      "type": "error",
      "name": "ERC20InvalidSender",
      "inputs": [
        {
          "name": "sender",
          "type": "address",
          "internalType": "address"
        }
      ]
    },
    {
      "type": "error",
      "name": "ERC20InvalidSpender",
      "inputs": [
        {
          "name": "spender",
          "type": "address",
          "internalType": "address"
        }
      ]
    },
    {
      "type": "error",
      "name": "OwnableInvalidOwner",
      "inputs": [
        {
          "name": "owner",
          "type": "address",
          "internalType": "address"
        }
      ]
    },
    {
      "type": "error",
      "name": "OwnableUnauthorizedAccount",
      "inputs": [
        {
          "name": "account",
          "type": "address",
          "internalType": "address"
        }
      ]
    }
  ],
  "bytecode": {
    "object": "0x60806040526040518060400160405280600881526020017f4c754c75436f696e000000000000000000000000000000000000000000000000815250600690816100489190610576565b506040518060400160405280600381526020017f4c4c4300000000000000000000000000000000000000000000000000000000008152506007908161008d9190610576565b50348015610099575f5ffd5b50604051611ad8380380611ad883398181016040528101906100bb91906106a3565b80600680546100c99061039d565b80601f01602080910402602001604051908101604052809291908181526020018280546100f59061039d565b80156101405780601f1061011757610100808354040283529160200191610140565b820191905f5260205f20905b81548152906001019060200180831161012357829003601f168201915b5050505050600780546101529061039d565b80601f016020809104026020016040519081016040528092919081815260200182805461017e9061039d565b80156101c95780601f106101a0576101008083540402835291602001916101c9565b820191905f5260205f20905b8154815290600101906020018083116101ac57829003601f168201915b505050505081600390816101dd9190610576565b5080600490816101ed9190610576565b5050505f73ffffffffffffffffffffffffffffffffffffffff168173ffffffffffffffffffffffffffffffffffffffff1603610260575f6040517f1e4fbdf700000000000000000000000000000000000000000000000000000000815260040161025791906106dd565b60405180910390fd5b61026f8161027660201b60201c565b50506106f6565b5f60055f9054906101000a900473ffffffffffffffffffffffffffffffffffffffff1690508160055f6101000a81548173ffffffffffffffffffffffffffffffffffffffff021916908373ffffffffffffffffffffffffffffffffffffffff1602179055508173ffffffffffffffffffffffffffffffffffffffff168173ffffffffffffffffffffffffffffffffffffffff167f8be0079c531659141344cd1fd0a4f28419497f9722a3daafe3b4186f6b6457e060405160405180910390a35050565b5f81519050919050565b7f4e487b71000000000000000000000000000000000000000000000000000000005f52604160045260245ffd5b7f4e487b71000000000000000000000000000000000000000000000000000000005f52602260045260245ffd5b5f60028204905060018216806103b457607f821691505b6020821081036103c7576103c6610370565b5b50919050565b5f819050815f5260205f209050919050565b5f6020601f8301049050919050565b5f82821b905092915050565b5f600883026104297fffffffffffffffffffffffffffffffffffffffffffffffffffffffffffffffff826103ee565b61043386836103ee565b95508019841693508086168417925050509392505050565b5f819050919050565b5f819050919050565b5f61047761047261046d8461044b565b610454565b61044b565b9050919050565b5f819050919050565b6104908361045d565b6104a461049c8261047e565b8484546103fa565b825550505050565b5f5f905090565b6104bb6104ac565b6104c6818484610487565b505050565b5b818110156104e9576104de5f826104b3565b6001810190506104cc565b5050565b601f82111561052e576104ff816103cd565b610508846103df565b81016020851015610517578190505b61052b610523856103df565b8301826104cb565b50505b505050565b5f82821c905092915050565b5f61054e5f1984600802610533565b1980831691505092915050565b5f610566838361053f565b9150826002028217905092915050565b61057f82610339565b67ffffffffffffffff81111561059857610597610343565b5b6105a2825461039d565b6105ad8282856104ed565b5f60209050601f8311600181146105de575f84156105cc578287015190505b6105d6858261055b565b86555061063d565b601f1984166105ec866103cd565b5f5b82811015610613578489015182556001820191506020850194506020810190506105ee565b86831015610630578489015161062c601f89168261053f565b8355505b6001600288020188555050505b505050505050565b5f5ffd5b5f73ffffffffffffffffffffffffffffffffffffffff82169050919050565b5f61067282610649565b9050919050565b61068281610668565b811461068c575f5ffd5b50565b5f8151905061069d81610679565b92915050565b5f602082840312156106b8576106b7610645565b5b5f6106c58482850161068f565b91505092915050565b6106d781610668565b82525050565b5f6020820190506106f05f8301846106ce565b92915050565b6113d5806107035f395ff3fe608060405234801561000f575f5ffd5b50600436106100fe575f3560e01c80638da5cb5b11610095578063b09f126611610064578063b09f12661461029a578063d28d8852146102b8578063dd62ed3e146102d6578063f2fde38b14610306576100fe565b80638da5cb5b1461021257806395d89b4114610230578063a0712d681461024e578063a9059cbb1461026a576100fe565b8063313ce567116100d1578063313ce5671461019e57806342966c68146101bc57806370a08231146101d8578063715018a614610208576100fe565b806306fdde0314610102578063095ea7b31461012057806318160ddd1461015057806323b872dd1461016e575b5f5ffd5b61010a610322565b6040516101179190611023565b60405180910390f35b61013a600480360381019061013591906110d4565b6103b2565b604051610147919061112c565b60405180910390f35b6101586103d4565b6040516101659190611154565b60405180910390f35b6101886004803603810190610183919061116d565b6103dd565b604051610195919061112c565b60405180910390f35b6101a661040b565b6040516101b391906111d8565b60405180910390f35b6101d660048036038101906101d191906111f1565b610413565b005b6101f260048036038101906101ed919061121c565b610455565b6040516101ff9190611154565b60405180910390f35b61021061049a565b005b61021a6104ad565b6040516102279190611256565b60405180910390f35b6102386104d5565b6040516102459190611023565b60405180910390f35b610268600480360381019061026391906111f1565b610565565b005b610284600480360381019061027f91906110d4565b6105a7565b604051610291919061112c565b60405180910390f35b6102a26105c9565b6040516102af9190611023565b60405180910390f35b6102c0610655565b6040516102cd9190611023565b60405180910390f35b6102f060048036038101906102eb919061126f565b6106e1565b6040516102fd9190611154565b60405180910390f35b610320600480360381019061031b919061121c565b610763565b005b606060038054610331906112da565b80601f016020809104026020016040519081016040528092919081815260200182805461035d906112da565b80156103a85780601f1061037f576101008083540402835291602001916103a8565b820191905f5260205f20905b81548152906001019060200180831161038b57829003601f168201915b5050505050905090565b5f5f6103bc6107e7565b90506103c98185856107ee565b600191505092915050565b5f600254905090565b5f5f6103e76107e7565b90506103f4858285610800565b6103ff858585610893565b60019150509392505050565b5f6012905090565b61041b610983565b6104253382610a0a565b807fb90306ad06b2a6ff86ddc9327db583062895ef6540e62dc50add009db5b356eb60405160405180910390a250565b5f5f5f8373ffffffffffffffffffffffffffffffffffffffff1673ffffffffffffffffffffffffffffffffffffffff1681526020019081526020015f20549050919050565b6104a2610983565b6104ab5f610a89565b565b5f60055f9054906101000a900473ffffffffffffffffffffffffffffffffffffffff16905090565b6060600480546104e4906112da565b80601f0160208091040260200160405190810160405280929190818152602001828054610510906112da565b801561055b5780601f106105325761010080835404028352916020019161055b565b820191905f5260205f20905b81548152906001019060200180831161053e57829003601f168201915b5050505050905090565b61056d610983565b6105773382610b4c565b807f07883703ed0e86588a40d76551c92f8a4b329e3bf19765e0e6749473c1a8466560405160405180910390a250565b5f5f6105b16107e7565b90506105be818585610893565b600191505092915050565b600780546105d6906112da565b80601f0160208091040260200160405190810160405280929190818152602001828054610602906112da565b801561064d5780601f106106245761010080835404028352916020019161064d565b820191905f5260205f20905b81548152906001019060200180831161063057829003601f168201915b505050505081565b60068054610662906112da565b80601f016020809104026020016040519081016040528092919081815260200182805461068e906112da565b80156106d95780601f106106b0576101008083540402835291602001916106d9565b820191905f5260205f20905b8154815290600101906020018083116106bc57829003601f168201915b505050505081565b5f60015f8473ffffffffffffffffffffffffffffffffffffffff1673ffffffffffffffffffffffffffffffffffffffff1681526020019081526020015f205f8373ffffffffffffffffffffffffffffffffffffffff1673ffffffffffffffffffffffffffffffffffffffff1681526020019081526020015f2054905092915050565b61076b610983565b5f73ffffffffffffffffffffffffffffffffffffffff168173ffffffffffffffffffffffffffffffffffffffff16036107db575f6040517f1e4fbdf70000000000000000000000000000000000000000000000000000000081526004016107d29190611256565b60405180910390fd5b6107e481610a89565b50565b5f33905090565b6107fb8383836001610bcb565b505050565b5f61080b84846106e1565b90507fffffffffffffffffffffffffffffffffffffffffffffffffffffffffffffffff81101561088d578181101561087e578281836040517ffb8f41b20000000000000000000000000000000000000000000000000000000081526004016108759392919061130a565b60405180910390fd5b61088c84848484035f610bcb565b5b50505050565b5f73ffffffffffffffffffffffffffffffffffffffff168373ffffffffffffffffffffffffffffffffffffffff1603610903575f6040517f96c6fd1e0000000000000000000000000000000000000000000000000000000081526004016108fa9190611256565b60405180910390fd5b5f73ffffffffffffffffffffffffffffffffffffffff168273ffffffffffffffffffffffffffffffffffffffff1603610973575f6040517fec442f0500000000000000000000000000000000000000000000000000000000815260040161096a9190611256565b60405180910390fd5b61097e838383610d9a565b505050565b61098b6107e7565b73ffffffffffffffffffffffffffffffffffffffff166109a96104ad565b73ffffffffffffffffffffffffffffffffffffffff1614610a08576109cc6107e7565b6040517f118cdaa70000000000000000000000000000000000000000000000000000000081526004016109ff9190611256565b60405180910390fd5b565b5f73ffffffffffffffffffffffffffffffffffffffff168273ffffffffffffffffffffffffffffffffffffffff1603610a7a575f6040517f96c6fd1e000000000000000000000000000000000000000000000000000000008152600401610a719190611256565b60405180910390fd5b610a85825f83610d9a565b5050565b5f60055f9054906101000a900473ffffffffffffffffffffffffffffffffffffffff1690508160055f6101000a81548173ffffffffffffffffffffffffffffffffffffffff021916908373ffffffffffffffffffffffffffffffffffffffff1602179055508173ffffffffffffffffffffffffffffffffffffffff168173ffffffffffffffffffffffffffffffffffffffff167f8be0079c531659141344cd1fd0a4f28419497f9722a3daafe3b4186f6b6457e060405160405180910390a35050565b5f73ffffffffffffffffffffffffffffffffffffffff168273ffffffffffffffffffffffffffffffffffffffff1603610bbc575f6040517fec442f05000000000000000000000000000000000000000000000000000000008152600401610bb39190611256565b60405180910390fd5b610bc75f8383610d9a565b5050565b5f73ffffffffffffffffffffffffffffffffffffffff168473ffffffffffffffffffffffffffffffffffffffff1603610c3b575f6040517fe602df05000000000000000000000000000000000000000000000000000000008152600401610c329190611256565b60405180910390fd5b5f73ffffffffffffffffffffffffffffffffffffffff168373ffffffffffffffffffffffffffffffffffffffff1603610cab575f6040517f94280d62000000000000000000000000000000000000000000000000000000008152600401610ca29190611256565b60405180910390fd5b8160015f8673ffffffffffffffffffffffffffffffffffffffff1673ffffffffffffffffffffffffffffffffffffffff1681526020019081526020015f205f8573ffffffffffffffffffffffffffffffffffffffff1673ffffffffffffffffffffffffffffffffffffffff1681526020019081526020015f20819055508015610d94578273ffffffffffffffffffffffffffffffffffffffff168473ffffffffffffffffffffffffffffffffffffffff167f8c5be1e5ebec7d5bd14f71427d1e84f3dd0314c0f7b2291e5b200ac8c7c3b92584604051610d8b9190611154565b60405180910390a35b50505050565b5f73ffffffffffffffffffffffffffffffffffffffff168373ffffffffffffffffffffffffffffffffffffffff1603610dea578060025f828254610dde919061136c565b92505081905550610eb8565b5f5f5f8573ffffffffffffffffffffffffffffffffffffffff1673ffffffffffffffffffffffffffffffffffffffff1681526020019081526020015f2054905081811015610e73578381836040517fe450d38c000000000000000000000000000000000000000000000000000000008152600401610e6a9392919061130a565b60405180910390fd5b8181035f5f8673ffffffffffffffffffffffffffffffffffffffff1673ffffffffffffffffffffffffffffffffffffffff1681526020019081526020015f2081905550505b5f73ffffffffffffffffffffffffffffffffffffffff168273ffffffffffffffffffffffffffffffffffffffff1603610eff578060025f8282540392505081905550610f49565b805f5f8473ffffffffffffffffffffffffffffffffffffffff1673ffffffffffffffffffffffffffffffffffffffff1681526020019081526020015f205f82825401925050819055505b8173ffffffffffffffffffffffffffffffffffffffff168373ffffffffffffffffffffffffffffffffffffffff167fddf252ad1be2c89b69c2b068fc378daa952ba7f163c4a11628f55a4df523b3ef83604051610fa69190611154565b60405180910390a3505050565b5f81519050919050565b5f82825260208201905092915050565b8281835e5f83830152505050565b5f601f19601f8301169050919050565b5f610ff582610fb3565b610fff8185610fbd565b935061100f818560208601610fcd565b61101881610fdb565b840191505092915050565b5f6020820190508181035f83015261103b8184610feb565b905092915050565b5f5ffd5b5f73ffffffffffffffffffffffffffffffffffffffff82169050919050565b5f61107082611047565b9050919050565b61108081611066565b811461108a575f5ffd5b50565b5f8135905061109b81611077565b92915050565b5f819050919050565b6110b3816110a1565b81146110bd575f5ffd5b50565b5f813590506110ce816110aa565b92915050565b5f5f604083850312156110ea576110e9611043565b5b5f6110f78582860161108d565b9250506020611108858286016110c0565b9150509250929050565b5f8115159050919050565b61112681611112565b82525050565b5f60208201905061113f5f83018461111d565b92915050565b61114e816110a1565b82525050565b5f6020820190506111675f830184611145565b92915050565b5f5f5f6060848603121561118457611183611043565b5b5f6111918682870161108d565b93505060206111a28682870161108d565b92505060406111b3868287016110c0565b9150509250925092565b5f60ff82169050919050565b6111d2816111bd565b82525050565b5f6020820190506111eb5f8301846111c9565b92915050565b5f6020828403121561120657611205611043565b5b5f611213848285016110c0565b91505092915050565b5f6020828403121561123157611230611043565b5b5f61123e8482850161108d565b91505092915050565b61125081611066565b82525050565b5f6020820190506112695f830184611247565b92915050565b5f5f6040838503121561128557611284611043565b5b5f6112928582860161108d565b92505060206112a38582860161108d565b9150509250929050565b7f4e487b71000000000000000000000000000000000000000000000000000000005f52602260045260245ffd5b5f60028204905060018216806112f157607f821691505b602082108103611304576113036112ad565b5b50919050565b5f60608201905061131d5f830186611247565b61132a6020830185611145565b6113376040830184611145565b949350505050565b7f4e487b71000000000000000000000000000000000000000000000000000000005f52601160045260245ffd5b5f611376826110a1565b9150611381836110a1565b92508282019050808211156113995761139861133f565b5b9291505056fea26469706673582212204844aa850fd1b43dc3373ec56d726d6b2054820127e4677a239e1b6f48bea21164736f6c634300081c0033",
    "linkReferences": {}
  },
  "methodIdentifiers": {
    "_name()": "d28d8852",
    "_symbol()": "b09f1266",
    "allowance(address,address)": "dd62ed3e",
    "approve(address,uint256)": "095ea7b3",
    "balanceOf(address)": "70a08231",
    "burn(uint256)": "42966c68",
    "decimals()": "313ce567",
    "mint(uint256)": "a0712d68",
    "name()": "06fdde03",
    "owner()": "8da5cb5b",
    "renounceOwnership()": "715018a6",
    "symbol()": "95d89b41",
    "totalSupply()": "18160ddd",
    "transfer(address,uint256)": "a9059cbb",
    "transferFrom(address,address,uint256)": "23b872dd",
    "transferOwnership(address)": "f2fde38b"
  },
  "id": 35
}